:020000040800F2
:10000000201E00208D060008E506000819080008DB
:100010002108000829080008310800080000000035
:10002000000000000000000000000000A1280008FF
:10003000E506000800000000592A00089D2A000873
:10004000E5060008E5060008E5060008E5060008E4
:10005000E5060008E5060008E5060008E5060008D4
:10006000E5060008E5060008E50600080D0600089C
:10007000E5060008E5060008E5060008E5060008B4
:10008000E5060008E5060008E5060008E5060008A4
:10009000E5060008E5060008E5060008E506000894
:1000A000E5060008E5060008E5060008E506000884
:1000B000E5060008E5060008E5060008E506000874
:1000C000E5060008E5060008E5060008E506000864
:1000D000E5060008E5060008E5060008E506000854
:1000E000E5060008E5060008E5060008E506000844
:1000F000E5060008E5060008E50600080106000818
:10010000E5060008E5060008E506000819060008EF
:10011000E5060008E5060008E5060008E506000813
:10012000E5060008E5060008E5060008E506000803
:10013000E5060008E5060008E5060008E5060008F3
:10014000E5060008E5060008E5060008E5060008E3
:10015000E5060008E5060008E5060008E5060008D3
:10016000E5060008E5060008E5060008E5060008C3
:10017000E5060008E5060008E5060008E5060008B3
:10018000E5060008E506000880B586B000AF786097
:100190000023FB6000F03CFF504B1B68002B01D19B
:1001A00000F0F8F84E4B1A687B681340002B7FD1A3
:1001B0007B68002B16D008227B6813447B607B6829
:1001C00003F00703002B0DD07B6823F007030833EF
:1001D0007B607B6803F00703002B03D04148BB2101
:1001E00000F02AFB7B68002B62D03F4B1B687A68CB
:1001F0009A425DD83D4B3B613C4B1B687B6104E000
:100200007B693B617B691B687B617B695A687B68A2
:100210009A4203D27B691B68002BF1D12F4B1B68DC
:100220007A699A4244D03B691B6808221344FB60F8
:100230007B691A683B691A607B695A687B68D21AC5
:1002400008235B009A4218D97A697B681344BB6023
:10025000BB6803F00703002B03D02248E82100F01D
:10026000EBFA7B695A687B68D21ABB685A607B6973
:100270007A685A60B86800F0EFF81B4B1A687B691F
:100280005B68D31A184A1360174B1A68184B1B681F
:100290009A4203D2144B1B68154A13607B695A6853
:1002A0000F4B1B681A437B695A607B6900221A60F6
:1002B00000F0BCFEFB68002B01D100F0A3FAFB6844
:1002C00003F00703002B04D006484FF4947100F0AC
:1002D000B3FAFB6818461837BD4680BD5814002095
:1002E00064140020982D00085C1400205014002095
:1002F0006014002080B584B000AF78607B68FB603C
:100300007B68002B3CD008235B42FA681344FB60F7
:10031000FB68BB60BB685A681B4B1B681340002B13
:1003200004D11A484FF49E7100F086FABB681B682E
:10033000002B04D0154840F23D1100F07DFABB6857
:100340005A68114B1B681340002B19D0BB681B68FF
:10035000002B15D1BB685A680B4B1B68DB431A4056
:10036000BB685A6000F054FEBB685A68084B1B68B3
:100370001344074A1360B86800F06EF800F056FEA8
:100380001037BD4680BD00BF64140020982D0008C2
:100390005C14002080B485B000AF4FF4A053BB6064
:1003A000274BFB60FB6803F00703002B0CD0FB68B6
:1003B0000733FB60FB6823F00703FB60BA68FB6848
:1003C000D31A1F4A1344BB60FB687B601D4A7B68DD
:1003D00013601C4B00225A607A68BB681344FB60B0
:1003E0000822FB689B1AFB60FB6823F00703FB6095
:1003F000FB68154A1360144B1B6800225A60124BAD
:100400001B6800221A607B683B603B68FA68D21A5E
:100410003B685A600C4B1A683B681A603B685B6823
:100420000A4A13603B685B68094A1360094B4FF046
:1004300000421A601437BD465DF8047B704700BF68
:100440005000002050140020581400206014002098
:100450005C1400206414002080B485B000AF786084
:10046000274BFB6002E0FB681B68FB60FB681A68B7
:100470007B689A42F7D3FB68BB60FB685B68BA682D
:100480001A447B689A4208D1FB685A687B685B68AB
:100490001A44FB685A60FB687B607B68BB607B68C2
:1004A0005B68BA681A44FB681B689A4218D1FB68FB
:1004B0001A68144B1B689A420DD07B685A68FB6817
:1004C0001B685B681A447B685A60FB681B681A6883
:1004D0007B681A6008E00B4B1A687B681A6003E0BF
:1004E000FB681A687B681A60FA687B689A4202D0D7
:1004F000FB687A681A601437BD465DF8047B704764
:10050000501400205814002080B500AF374B1A68F3
:10051000374B1B681046194601F0BEFC0346002B02
:1005200062D0344B1B68002B4AD000BF2F4B1B6896
:10053000184601F099FC0346002BF7D12B4B1A68A3
:100540002B4B1B681046194601F0E2FC2A4B1B6836
:100550001A462A4B9A60274B1B684FF6FF7293424C
:1005600028BF1346254A1361204B1B6818462349B0
:1005700001F008FC1D4B1B681846012101F058FCD6
:100580001D4B1A681B4B1B684FF6FF718B4228BF2F
:100590000B465B001344184A1360164B1A68154B40
:1005A0001B684FF6FF718B4228BF0B46D31A114AC6
:1005B00013600E4B1B681846012101F039FC13E053
:1005C0000A4B1B681846002101F032FC074B1A68E1
:1005D000074B1B681046194601F09AFC064B1B6836
:1005E0001846002102F0B2FA80BD00BF14000020BE
:1005F0002000002004000020A4150020E4150020A5
:1006000080B500AFFFF780FF80BD00BF80B500AFB1
:10061000FFF77AFF80BD00BF80B500AF0C48022114
:1006200002F0B4FA0346002B11D00A4B1B68022BD0
:1006300006D102F095FA03460420194600F00CF8A2
:1006400002F08EFA03460248194602F091FA80BD84
:10065000003C00400C00002080B485B000AF786002
:100660000B467B800023FB60074BFB60FA687B68CE
:1006700013440833FB60FB681A467B881360143709
:10068000BD465DF8047B70470074004080B582B0C1
:1006900000AF0F4B7B600F4B3B6007E03B681A1DC0
:1006A0003A607A68111D796012681A603B680A4ADC
:1006B0009342F3D309480A494FF000028842B8BF79
:1006C00040F8042BFADB00F05DF80837BD4680BD2A
:1006D0000C2F0008000000205000002050000020D7
:1006E0002016002080B400AFFEE700BF80B584B0C4
:1006F00000AF0346FB71FB79104A52F823301846CD
:10070000012100F09FF8FB790D4A32F81330BB60ED
:1007100001233B730023BB730123FB7302237B7311
:10072000FB79084A52F8232007F1080310461946BE
:1007300001F0E8F91037BD4680BD00BFD42D000898
:10074000CC2D00083400002080B483B000AF0346F5
:10075000FB71FB79094A52F82330FA79074951F8BD
:1007600022205269F979064830F811104A405A613E
:100770000C37BD465DF8047B704700BF3400002095
:10078000CC2D000880B500AF0020FFF7AFFF00F0D0
:1007900003F800F001FCFEE780B586B004AF00234B
:1007A0003B60022300933B46019300230293002306
:1007B0000393084808498222002300F0FFFA78607A
:1007C0007B68012B03D00548322100F035F808374B
:1007D000BD4680BDE1070008FC2D0008042E00087E
:1007E00080B584B000AF78604FF47A73FB6000206E
:1007F000FFF7AAFFF86800F099FBF8E780B400AFB4
:10080000FEE700BF80B400AFFEE700BF80B483B056
:1008100000AF78603960FEE780B400AFFEE700BF4C
:1008200080B400AFFEE700BF80B400AFFEE700BFBA
:1008300080B400AFFEE700BF80B483B000AF786043
:100840003960FEE780B483B000AF78600B46FB7080
:10085000FB78002B06D00949084B1A6B7B681343C1
:100860000B6306E00549054B1A6B7B68DB431340BD
:100870000B630C37BD465DF8047B704700380240BF
:1008800080B586B004AF00237B6000F063FA104BA4
:100890001B68002B0FD00223009300230193002339
:1008A0000293002303930B480B494FF482720023F9
:1008B00000F084FA78607B68002B04D107484FF47D
:1008C0008771FFF7B9FF7B6818460837BD4680BDC2
:1008D00098140020E50900082C2E0008342E00088A
:1008E00080B588B000AFF860B9607A603B600023E3
:1008F000FB611D4B1B68002B30D0BB683B617B68E4
:100900007B61FB68BB61BB68052B1CDC01F012F846
:100910000346022B0BD1144B1A6807F11003104643
:100920001946BA6A002301F0CFFBF86116E00E4BBE
:100930001A6807F11003104619460022002301F03F
:10094000C3FBF8610AE0084B1A6807F11003104670
:1009500019463A68002301F087FCF861FB691846E4
:100960002037BD4680BD00BF9814002080B586B0FA
:1009700002AF78603960194B1B68DB68DB68FB608D
:10098000FB680433184601F0D3F9FB68DB69012BDF
:100990001DD1FB689A697B681344F86819463A6868
:1009A0007B6800F0ABF80346012B10D100230093C5
:1009B000F86800217A680023FFF792FFB860BB68EF
:1009C000002B04D106484FF4C871FFF735FFFB68D0
:1009D0005B6AF86898471037BD4680BD90140020C8
:1009E000342E000880B584B000AF786007F10803AA
:1009F000184600F03FF8F860BB68F868194600F048
:100A000003F800F0BDF8F1E780B584B000AF78607E
:100A1000396000F0FDFA07F10803184600F04EF8BF
:100A2000F860BB68002B1ED13B68002B0AD17A68A6
:100A3000FB689A4206D800F0F9FA7868F968FFF77F
:100A400095FF12E00A4B19687A68FB68D31A0846CA
:100A5000194601F07BFE00F0E9FA0346002B04D1B1
:100A600001F09EFF01E000F0E1FA1037BD4680BDC5
:100A70009814002080B485B000AF78600E4B1B68DE
:100A80001B68002B0CBF01230023DBB21A467B68D6
:100A90001A607B681B68002B05D1074B1B68DB685D
:100AA0001B68FB6001E00023FB60FB6818461437FD
:100AB000BD465DF8047B70479014002080B584B07B
:100AC00000AF786000F03CFBF8600B4B1B68FA68E5
:100AD0009A4205D200F0E2F87B6801221A6002E037
:100AE0007B6800221A60044AFB681360FB681846A2
:100AF0001037BD4680BD00BF9C14002080B586B075
:100B000000AFF860B9607A603B6000237B61FB68EE
:100B1000BA685A60FB68FA681A61BA687B689A42D8
:100B200012D87A683B68D21AFB689B699A4202D352
:100B300001237B611BE0104B1A68FB6804331046ED
:100B4000194601F0BDF812E07A683B689A4206D275
:100B5000BA683B689A4202D301237B6107E0074BE6
:100B60001A68FB6804331046194601F0A9F87B693E
:100B700018461837BD4680BD9414002090140020FC
:100B800080B58AB002AF73E0BB68002B70DB3B69B5
:100B9000FB61FB695B69002B04D0FB6904331846D9
:100BA00001F0C6F83B1D1846FFF788FFB861BB6827
:100BB000092B5CD801A252F823F000BFE50B000816
:100BC000E50B0008E50B0008710C0008390C000863
:100BD000670C0008E50B0008E50B0008710C000825
:100BE000390C0008FA68FB699B691A44FB68F869CC
:100BF0001146BA69FFF782FF0346012B1BD1FB693F
:100C00005B6AF8699847FB69DB69012B13D1FA68C5
:100C1000FB699B691A4400230093F86900210023B3
:100C2000FFF75EFE78617B69002B04D1194840F222
:100C30009621FFF701FE1BE0FA68FB699A61FB69E8
:100C40009B69002B04D1134840F2AD21FFF7F4FD5E
:100C5000FB699A69BB691344F8691946BA69BB69AB
:100C6000FFF74CFF04E0F869FFF744FB00E000BF2A
:100C7000094B1A6807F108031046194600220023A1
:100C800001F06CFB0346002B7FF47EAF2037BD469E
:100C900080BD00BF342E00089814002080B588B0B5
:100CA00002AF3FE0284B1B68DB681B687B61264B6B
:100CB0001B68DB68DB683B613B690433184601F065
:100CC00037F83B695B6A386998473B69DB69012BF8
:100CD00028D13B699A697B691344FB60FA687B6998
:100CE0009A420ED93B69FA685A603B693A691A61BF
:100CF000154B1A683B6904331046194600F0E0FFB3
:100D000010E000230093386900217A690023FFF77F
:100D1000E7FDB860BB68002B04D10C4840F2F2211B
:100D2000FFF78AFD084B1B681B68002BBAD1064BE6
:100D30001B687B60064B1B68034A1360044A7B6890
:100D400013601837BD4680BD90140020342E000873
:100D50009414002080B500AF01F032FE114B1B68E7
:100D6000002B1CD1104800F05BFF104800F058FF2A
:100D70000F4B0D4A1A600F4B0C4A1A600F200C21C2
:100D8000002201F04FF90246064B1A60054B1B6822
:100D9000002B04D108484FF44471FFF74DFD01F0DA
:100DA00031FE80BD98140020681400207C140020BF
:100DB0009014002094140020342E000880B58AB0CE
:100DC00002AFF860B9603B601346FB80FB68002B04
:100DD00004D14F4840F22921FFF72EFDBB6A042BB6
:100DE00004D94B4840F22A21FFF726FDFB8818461C
:100DF000396B00F033FDB861BB69002B70D0BB6963
:100E00001A6BFB8803F18043013B9B0013447B6119
:100E10007B6923F007037B617B6903F00703002BE9
:100E200004D03B484FF41671FFF706FDFB88009392
:100E3000B869B968BA6A7B6B00F00CFC7869F9682C
:100E40003A6801F0EFFC0246BB691A60FB6A002BAE
:100E500002D0FB6ABA691A6001F0B2FD2D4B1B6823
:100E600001332C4A13602C4B1B68002B09D12A4AF2
:100E7000BB691360274B1B68012B0FD100F040FCAE
:100E80000CE0264B1B68002B08D1234B1B68DA6A49
:100E9000BB6A9A4202D8204ABB691360204B1B6888
:100EA00001331F4A1360BB69DA6A1E4B1B689A4202
:100EB00003D9BB69DB6A1B4A1360BB69DA6A134654
:100EC0009B0013449B00184A1A44BB690433104624
:100ED000194600F0D1FE0123FB6101F093FD02E011
:100EE0004FF0FF33FB61FB69012B0BD10B4B1B68F0
:100EF000002B07D0084B1B68DA6ABB6A9A4201D202
:100F000001F04EFDFB6918462037BD4680BD00BF8D
:100F1000682E000878150020A014002084150020F9
:100F20009415002080150020A414002080B584B002
:100F300000AF78600023FB607B68002B1BD0124B56
:100F40001B68002B04D0114840F29F31FFF774FC5E
:100F500000F05EF80E4B1A687B681344BB600D4BC3
:100F60001B680433184600F0E3FEB86800F040FC4C
:100F700000F05CF8F860FB68002B01D101F010FD77
:100F80001037BD4680BD00BF98150020682E0008B0
:100F90007C150020A014002080B586B004AF00238B
:100FA000009300230193002302930023039313482B
:100FB000134982220023FFF701FF78607B68012B31
:100FC00002D1FFF75DFC78607B68012B0AD101F04C
:100FD00035FD0C4B01221A600B4B00221A6001F008
:100FE00081FC07E07B68002B04D1084840F24C618B
:100FF000FFF722FC0837BD4680BD00BF3116000850
:101000009C2E0008841500207C150020682E000806
:1010100080B400AF044B1B680133034A1360BD4624
:101020005DF8047B704700BF9815002080B582B042
:1010300000AF00237B60394B1B68002B04D138487C
:1010400040F28961FFF7F8FB01F0BAFC334B1B68F3
:10105000013B324A1360314B1B68002B56D1314B98
:101060001B68002B52D02FE02F4BDB68DB683B6006
:101070003B681833184600F05BFE3B6804331846A3
:1010800000F056FE3B68DA6A284B1B689A4203D987
:101090003B68DB6A254A13603B68DA6A13469B00AB
:1010A00013449B00224A1A443B68043310461946F5
:1010B00000F0E2FD3B68DA6A1E4B1B68DB6A9A426D
:1010C00002D31D4B01221A60174B1B68002BCBD19A
:1010D0001A4B1B68002B11D00CE000F041F80346BE
:1010E000002B02D0144B01221A60144B1B68013BE9
:1010F000124A1360114B1B68002BEED10E4B1B687C
:10110000012B03D101237B6001F04AFC01F07AFC42
:101110007B6818460837BD4680BD00BF9815002083
:10112000682E000878150020381500208015002052
:10113000A4140020A01400208C1500208815002085
:1011400080B483B000AF054B1B687B607B6818469A
:101150000C37BD465DF8047B704700BF7C1500204E
:1011600080B586B000AF00237B614F4B1B68002B1E
:1011700040F089804D4B1B6801334C4A13604B4B48
:101180001B683B613B69002B1AD1494B1B681B68EC
:10119000002B04D0474840F2A571FFF74DFB444BAC
:1011A0001B68FB60444B1B68414A1360424AFB6862
:1011B0001360424B1B680133404A136000F096FBFA
:1011C0003F4B1B683A699A424ED3394B1B681B68E8
:1011D000002B01D1012300E00023002B04D0384B69
:1011E0004FF0FF321A603FE0314B1B68DB68DB6871
:1011F000BB60BB685B687B603A697B689A4203D2DC
:101200002F4A7B6813602FE0BB680433184600F058
:101210008FFDBB689B6A002B04D0BB68183318464F
:1012200000F086FDBB68DA6A264B1B689A4203D938
:10123000BB68DB6A234A1360BB68DA6A13469B000B
:1012400013449B00204A1A44BB68043310461946D5
:1012500000F012FDBB68DA6A1C4B1B68DB6A9A421D
:1012600001D301237B61B0E7184B1B68DA6A16498A
:1012700013469B0013449B000B441B68012B07D9AA
:1012800001237B6104E0124B1B680133104A136099
:10129000104B1B68002B01D001237B617B69184632
:1012A0001837BD4680BD00BF981500207C15002072
:1012B00030150020682E00083415002090150020FD
:1012C0004800002080150020A4140020A014002055
:1012D000881500208C15002080B582B000AF2B4B04
:1012E0001B68002B03D02A4B01221A604BE0284BCD
:1012F00000221A60274B1B681A68264B1B681B6B61
:101300009A4208D8234B1A68224B1B683433104684
:101310001946FFF77BFA0DE01F4B1B68002B04D129
:101320001E4840F6C401FFF787FA1B4B1B68013BC0
:10133000194A1360184B1A68194913469B00134445
:101340009B000B441B68002BE6D0134B1A68134616
:101350009B0013449B00124A13447B607B685B68CC
:101360005A687B685A607B685A687B6808339A427F
:1013700004D17B685B685A687B685A607B685B68ED
:10138000DB68044A13600837BD4680BD981500200D
:101390008C150020A014002080150020682E000865
:1013A000A414002080B584B000AF786039607B68F9
:1013B000002B04D1144840F6D601FFF73DFA134B39
:1013C0001B6818337868194600F07AFC0F4B1B68CD
:1013D0000433184600F0ACFC3B68B3F1FF3F07D183
:1013E0000A4B1B6804330A48194600F045FC07E025
:1013F000084B1A683B681344FB60F86800F0F8F982
:101400001037BD4680BD00BF682E0008A014002024
:10141000641500207C15002080B584B000AF786092
:1014200039607B68002B04D10E4840F65511FFF758
:1014300003FA0D4B1B6818337868194600F01CFC42
:10144000094B1B680433184600F072FC074B1A68FE
:101450003B681344FB60F86800F0CAF91037BD46DA
:1014600080BD00BF682E0008A01400207C1500205D
:1014700080B584B000AF78607B68DB68DB68BB60F8
:10148000BB68002B04D1234840F68F11FFF7D4F935
:10149000BB681833184600F04BFC1F4B1B68002B31
:1014A0001DD1BB680433184600F042FCBB68DA6A01
:1014B0001A4B1B689A4203D9BB68DB6A174A136050
:1014C000BB68DA6A13469B0013449B00144A1A4413
:1014D000BB6804331046194600F0CEFB05E0BB683C
:1014E00018331048194600F0C7FBBB68DA6A0E4B88
:1014F0001B68DB6A9A4205D90123FB600B4B012272
:101500001A6001E00023FB60FB6818461037BD46F7
:1015100080BD00BF682E00089815002080150020AF
:10152000A414002038150020A01400208C150020E1
:1015300080B582B000AF78607B68002B04D108488A
:1015400040F6EF11FFF778F9064B1A687B681A60CE
:10155000054B1A687B685A600837BD4680BD00BFDE
:10156000682E0008901500207C15002080B584B0FE
:1015700000AF786039607B68002B04D1234840F6C7
:10158000F911FFF759F93B68002B04D11F4840F6C9
:10159000FA11FFF751F901F013FA1D4B1B68BB60FC
:1015A0003B681B68B3F1FF3F02D10023FB6026E0DC
:1015B0007B681A68174B1B689A4207D07B685A6889
:1015C000BB689A4202D80123FB6018E07B685B6825
:1015D000BA68D21A3B681B689A420ED23B681A68F6
:1015E0007B685968BB68CB1A1A443B681A607868F4
:1015F000FFF79EFF0023FB6001E00123FB6001F089
:1016000001FAFB6818461037BD4680BD682E0008F9
:101610007C1500209015002080B400AF034B012200
:101620001A60BD465DF8047B704700BF8C15002032
:1016300080B582B000AF786000F0A0F8044B1B6862
:10164000012B01D901F0ACF9FFF7D8F8F4E700BF9E
:10165000A414002080B586B000AFF860B9607A604D
:101660003B6000237B6113E0BA687B6913441978FF
:10167000FA687B69134430330A461A71BA687B6989
:1016800013441B78002B00D105E07B6901337B619B
:101690007B69092BE8D9FB68002283F83D207B6831
:1016A000042B01D904237B60FB687A68DA62FB684B
:1016B0007A681A64FB6800225A64FB68043318468F
:1016C00000F0CEFAFB681833184600F0C9FAFB6840
:1016D000FA681A617B68C3F10502FB689A61FB68CE
:1016E000FA685A62FB6800229A64FB680022DA6496
:1016F000FB68002283F850201837BD4680BD00BF2C
:1017000080B582B000AF00237B600CE07A6813469E
:101710009B0013449B00114A1344184600F080FAC2
:101720007B6801337B607B68042BEFD90C4800F0A9
:1017300077FA0C4800F074FA0B4800F071FA0B4885
:1017400000F06EFA0A4800F06BFA0A4B044A1A607D
:10175000094B044A1A600837BD4680BDA414002016
:10176000081500201C150020381500204C150020FD
:1017700064150020301500203415002080B582B09B
:1017800000AF28E0FFF744FC164B1B68002B0CBF92
:1017900001230023DBB27B60FFF748FC7B68002B52
:1017A00019D101F00DF90F4BDB68DB683B603B683A
:1017B0000433184600F0BCFA0B4B1B68013B0A4A85
:1017C00013600A4B1B68013B084A136001F01AF9C9
:1017D000386800F07BF8054B1B68002BD2D1083726
:1017E000BD4680BD4C1500207815002060150020F6
:1017F00080B582B000AF7860134B1B687A685A607E
:10180000124B1B687A689A4209D2114B1A680E4B28
:101810001B6804331046194600F052FA10E00D4BD5
:101820001A68094B1B6804331046194600F048FA41
:10183000094B1B687A689A4202D2074A7B68136098
:101840000837BD4680BD00BFA01400207C150020D5
:1018500034150020301500204800002080B584B0E9
:1018600000AF03463960FB803B68002B06D1FB8844
:101870009B001846FEF788FC034600E03B68BB600F
:10188000BB68002B0ED05420FEF77EFCF860FB688E
:10189000002B03D0FB68BA681A6305E0B868FEF74E
:1018A00029FD01E00023FB60FB68002B08D0FB68EA
:1018B0001A6BFB889B001046A5211A4601F01CFA02
:1018C000FB6818461037BD4680BD00BF80B582B0AA
:1018D00000AF78607B681B6B1846FEF70BFD7868DD
:1018E000FEF708FD0837BD4680BD00BF80B483B059
:1018F00000AF0E4B1B681B68002B01D1012300E0D9
:101900000023002B04D00A4B4FF0FF321A6008E08E
:10191000064B1B68DB68DB687B607B685B68044A9E
:1019200013600C37BD465DF8047B7047301500200E
:101930004800002080B483B000AF0B4B1B68002B25
:1019400002D101237B6008E0084B1B68002B02D109
:1019500002237B6001E000237B607B6818460C3724
:10196000BD465DF8047B7047841500209815002063
:1019700080B584B000AF78607B68FB607B68002B2B
:101980004AD0FB68DA6A264B1B68DB6A9A4243D26C
:10199000FB689B69002B06DB214B1B68DB6AC3F1EC
:1019A0000502FB689A61FB685969FB68DA6A1346AD
:1019B0009B0013449B001B4A1344994201D101230D
:1019C00000E00023002B22D0FB680433184600F00F
:1019D000AFF9134B1B68DA6AFB68DA62FB68DA6AF4
:1019E000114B1B689A4203D9FB68DB6A0E4A1360ED
:1019F000FB68DA6A13469B0013449B00094A1A44A9
:101A0000FB6804331046194600F036F904E0044B35
:101A10001B68DA6AFB68DA621037BD4680BD00BF1A
:101A2000A0140020A41400208015002080B584B0EC
:101A300000AF78607B68BB600023FB607B68002B95
:101A400040D0BB685B6C002B04D1214840F64F515D
:101A5000FEF7F2FEBB685B6C5A1EBB685A64BB683B
:101A6000DA6ABB681B6C9A422CD0BB685B6C002B9B
:101A700028D1BB680433184600F05AF9BB681A6CC9
:101A8000BB68DA62BB68DB6AC3F10502BB689A61B6
:101A9000BB68DA6A0F4B1B689A4203D9BB68DB6AE2
:101AA0000C4A1360BB68DA6A13469B0013449B0020
:101AB000094A1A44BB6804331046194600F0DCF8A2
:101AC0000123FB60FB6818461037BD4680BD00BF90
:101AD000682E000880150020A414002080B400AFF8
:101AE000074B1B68002B04D0054B1B685A6C013256
:101AF0005A64034B1B681846BD465DF8047B70476B
:101B0000A014002080B487B000AF78603960002353
:101B10007B6100233B610023FB6000237B6176E057
:101B20007B69012202FA03F33B613B681A683B6957
:101B30001340FB60FA683B699A4265D17B681A687A
:101B40007B695B00194603238B40DB431A407B68AB
:101B50001A607B681A683B681B7919467B695B00D1
:101B600001FA03F31A437B681A603B681B79012B67
:101B700003D03B681B79022B2ED17B689A687B6966
:101B80005B00194603238B40DB431A407B689A6055
:101B90007B689A683B685B7919467B695B0001FA50
:101BA00003F31A437B689A607B685A687B699BB22F
:101BB000194601238B40DB431A407B685A607B68DF
:101BC0005B683A68927911467A6992B201FA02F238
:101BD00092B21A437B685A607B68DA687B699BB271
:101BE0005B00032101FA03F3DB431A407B68DA60F0
:101BF0007B68DA683B68DB7919467B695B0001FA30
:101C000003F31A437B68DA607B6901337B617B698C
:101C10000F2B85D91C37BD465DF8047B704700BF8C
:101C200080B483B000AF78607B6803F108027B6802
:101C30005A607B684FF0FF329A607B6803F10802BC
:101C40007B68DA607B6803F108027B681A617B6855
:101C500000221A600C37BD465DF8047B704700BF58
:101C600080B483B000AF78607B6800221A610C37C3
:101C7000BD465DF8047B704780B485B000AF7860E6
:101C800039607B685B68FB603B68FA685A60FB6898
:101C90009A683B689A60FB689B683A685A60FB6880
:101CA0003A689A603B687A681A617B681B685A1CBC
:101CB0007B681A601437BD465DF8047B704700BF2F
:101CC00080B485B000AF786039603B681B68BB604A
:101CD000BB68B3F1FF3F03D17B681B69FB600CE07D
:101CE0007B680833FB6002E0FB685B68FB60FB68B5
:101CF0005B681A68BB689A42F6D9FB685A683B6809
:101D00005A603B685B683A689A603B68FA689A6018
:101D1000FB683A685A603B687A681A617B681B689E
:101D20005A1C7B681A601437BD465DF8047B704707
:101D300080B485B000AF78607B681B69FB607B680E
:101D40005B687A6892689A607B689B687A68526878
:101D50005A60FB685A687B689A4203D17B689A682C
:101D6000FB685A607B6800221A61FB681B685A1E78
:101D7000FB681A60FB681B6818461437BD465DF89F
:101D8000047B704780B485B000AF78603960002371
:101D9000FB607B681B68FB60FA68244B1340FB60A8
:101DA0003B681A683B68DB681A433B685B691A4307
:101DB0003B689B691A433B68DB691A433B681B6AB3
:101DC0001A433B685B6A1A433B689B6A1A433B6849
:101DD0005B6B1A433B689B6B1343FA681343FB60CE
:101DE0007B68FA681A607B685B69FB60FB6823F0BC
:101DF0000703FB603B68DA6A3B681B6B1343FA68B6
:101E00001343FB607B68FA685A613B681A697B6818
:101E10005A603B685A687B689A603B689A687B683E
:101E2000DA601437BD465DF8047B70473F801CF0D4
:101E300080B483B000AF78600B46FB70FB78002B5A
:101E400006D07B681B6843F001027B681A6005E0DE
:101E50007B681B6823F001027B681A600C37BD4663
:101E60005DF8047B704700BF80B485B000AF786038
:101E70000023FB737B681B6803F00103002B02D077
:101E80000123FB7301E00023FB73FB7B184614372F
:101E9000BD465DF8047B704780B487B000AF7860C2
:101EA00039600023FB750023FB607B68154A934271
:101EB00002D8154B3B6101E0144B3B613B6803F0DA
:101EC0000053002B03D03B695B68FB6002E03B6979
:101ED0001B68FB60FB6823F0F02323F08213FB6098
:101EE000FA683B681340002B02D00123FB7501E028
:101EF0000023FB75FB7D18461C37BD465DF8047B4F
:101F0000704700BF0F64024000600240006402405E
:101F100080B485B000AF786039607B68104A934226
:101F200002D8104BFB6001E00F4BFB603B6803F0F5
:101F30000053002B07D03B6823F0F02323F08213DB
:101F4000FA68D36006E03B6823F0F02323F08213A5
:101F5000FA6893601437BD465DF8047B704700BF94
:101F60000F640240006002400064024080B584B00B
:101F700000AF786039607B68FB60FB68002B04D1A0
:101F800027484FF48471FEF757FC00F019FDFB68F9
:101F90001A68FB68DB6BF968096C01FB03F31A44F0
:101FA000FB685A60FB6800229A63FB681A68FB684A
:101FB0009A60FB681A68FB68DB6B013BF968096C87
:101FC00001FB03F31A44FB68DA60FB684FF0FF3251
:101FD0005A64FB684FF0FF329A643B68002B0ED1C5
:101FE000FB681B69002B14D0FB6810331846FFF701
:101FF0003FFA0346012B0CD100F0D2FC09E0FB684C
:1020000010331846FFF70CFEFB6824331846FFF721
:1020100007FE00F0F7FC012318461037BD4680BDCF
:10202000A42E000880B588B000AFF860B9601346F0
:10203000FB710023BB61FB68002B04D121484FF4E6
:10204000A271FEF7F9FBBB68002B02D10023FB61F4
:1020500005E0FB68BA6802FB03F30133FB61FB692F
:1020600050331846FEF790F878617B69002B1CD03E
:102070007B693B61BB68002B03D13B693A691A60FD
:1020800004E07B6903F150023B691A603B69FA681E
:10209000DA633B69BA681A6438690121FFF766FFA1
:1020A0003B690022DA643B69BB61BB69002B04D148
:1020B00004484FF4C171FEF7BFFBBB6918462037D7
:1020C000BD4680BDA42E000880B58AB000AFF86080
:1020D000B9607A603B6000237B62FB683B623B6ACD
:1020E000002B04D15F4840F26B21FEF7A5FBBB68D3
:1020F000002B08D13B6A1B6C002B04D059484FF4CD
:102100001B71FEF799FB3B68022B08D13B6ADB6B26
:10211000012B04D0534840F26D21FEF78DFBFFF7F1
:1021200009FC0346002B07D17B68002B04D04D48E7
:102130004FF41C71FEF780FB00F042FC3B6A9A6B87
:102140003B6ADB6B9A4202D33B68022B2BD1386A85
:10215000B9683A6800F0DEF9F8613B6ADB6C002B85
:1021600009D0386A396800F01DFB0346012B16D1EF
:1021700000F016FC13E03B6A5B6A002B0AD03B6A56
:1021800024331846FFF774F90346012B07D100F0FA
:1021900007FC04E0FB69002B01D000F001FC00F01B
:1021A00031FC012359E07B68002B03D100F02AFCAD
:1021B000002352E07B6A002B06D107F11403184676
:1021C000FFF7B6F901237B6200F01CFCFEF720FF4D
:1021D00000F0F6FB3B6A5B6CB3F1FF3F02D13B6A58
:1021E00000225A643B6A9B6CB3F1FF3F02D13B6A09
:1021F00000229A6400F006FC07F114023B1D104611
:102200001946FFF7B3F90346002B1ED1386A00F0D8
:1022100085FA0346002B12D03B6A03F110027B685B
:1022200010461946FFF7BEF8386A00F007FAFEF7C5
:10223000FDFE0346002B0FD100F0B2FB0CE0386A24
:1022400000F0FCF9FEF7F2FE76E7386A00F0F6F9E6
:10225000FEF7ECFE002300E06EE718462837BD4687
:1022600080BD00BFA42E000880B588B000AFF86024
:10227000B9607A603B60FB68BB61BB69002B04D12D
:1022800035484FF48561FEF7D7FABB68002B08D1BB
:10229000BB691B6C002B04D02F4840F22941FEF78C
:1022A000CBFA3B68022B08D1BB69DB6B012B04D056
:1022B000294840F22A41FEF7BFFA00F015FC00F071
:1022C000BDFB7861BB699A6BBB69DB6B9A4202D339
:1022D0003B68022B36D1B869B9683A6800F01AF940
:1022E000BB699B6CB3F1FF3F24D1BB69DB6C002B56
:1022F0000DD0B869396800F055FA0346012B1ED19C
:102300007B68002B1BD07B6801221A6017E0BB6939
:102310005B6A002B13D0BB6924331846FFF7A8F87B
:102320000346002B0BD07B68002B08D07B68012272
:102330001A6004E0BB699B6C5A1CBB699A64012358
:10234000FB6101E00023FB61786900F081FBFB6920
:1023500018462037BD4680BDA42E000880B58AB03F
:1023600000AFF860B9607A603B6000237B62FB6875
:102370003B623B6A002B04D165484FF4AB61FEF72A
:102380005BFABB68002B08D13B6A1B6C002B04D0A6
:102390005F4840F25951FEF74FFAFFF7CBFA034678
:1023A000002B07D17B68002B04D0594840F25C51C8
:1023B000FEF742FA00F004FB3B6A9B6B002B3BD01C
:1023C0003B6ADB68FB61386AB96800F011F93B6869
:1023D000002B1CD13B6A9B6B5A1E3B6A9A633B6A7B
:1023E0001B68002B04D1FFF779FB02463B6A5A6059
:1023F0003B6A1B69002B1BD03B6A10331846FFF762
:1024000037F80346012B13D100F0CAFA10E03B6AFB
:10241000FA69DA603B6A5B6A002B09D03B6A2433B5
:102420001846FFF725F80346002B01D000F0B8FA54
:1024300000F0E8FA012366E07B68002B03D100F08E
:10244000E1FA00235FE07B6A002B06D107F1140359
:102450001846FFF76DF801237B6200F0D3FAFEF710
:10246000D7FD00F0ADFA3B6A5B6CB3F1FF3F02D1E0
:102470003B6A00225A643B6A9B6CB3F1FF3F02D176
:102480003B6A00229A6400F0BDFA07F114023B1D7A
:1024900010461946FFF76AF80346002B2BD1386A1D
:1024A00000F026F90346002B1FD03B6A1B68002B67
:1024B00008D100F085FA3B6A5B681846FFF758FAC6
:1024C00000F0A0FA3B6A03F124027B68104619462B
:1024D000FEF768FF386A00F0B1F8FEF7A7FD034683
:1024E000002B0FD100F05CFA0CE0386A00F0A6F87F
:1024F000FEF79CFD5EE7386A00F0A0F8FEF796FD57
:10250000002300E056E718462837BD4680BD00BFCF
:10251000A42E000880B586B000AFF860B9607A607C
:1025200000237B61FB681B6C002B0DD1FB681B68D3
:10253000002B52D1FB685B681846FFF777FA786189
:10254000FB6800225A6048E07B68002B1AD1FB68C8
:102550009A68FB681B6C1046B9681A4600F032FB9B
:10256000FB689A68FB681B6C1A44FB689A60FB68FE
:102570009A68FB685B689A422FD3FB681A68FB680D
:102580009A602AE0FB68DA68FB681B6C1046B96841
:102590001A4600F017FBFB68DA68FB681B6C5B42AD
:1025A0001A44FB68DA60FB68DA68FB681B689A42C9
:1025B00007D2FB685A68FB681B6C5B421A44FB68D5
:1025C000DA607B68022B08D1FB689B6B002B04D080
:1025D000FB689B6B5A1EFB689A63FB689B6B5A1CDB
:1025E000FB689A637B6918461837BD4680BD00BFFB
:1025F00080B582B000AF786039607B681B6C002BBF
:1026000019D07B68DA687B681B6C1A447B68DA60D7
:102610007B68DA687B685B689A4203D37B681A68D8
:102620007B68DA607B68DA687B681B6C3868114607
:102630001A4600F0C7FA0837BD4680BD80B582B0A3
:1026400000AF786000F0BCF922E07B68DB6C002B07
:1026500009D07868002100F0A5F80346012B12D1BB
:10266000FEF7DAFF0FE07B685B6A002B0AD07B681D
:1026700024331846FEF7FCFE0346002B03D0FEF77A
:10268000CBFF00E008E07B689B6C5A1E7B689A6475
:102690007B689B6C002BD8DC7B684FF0FF329A6420
:1026A00000F0B0F900F08CF914E07B681B69002B96
:1026B0000FD07B6810331846FEF7DAFE0346002B76
:1026C00001D0FEF7A9FF7B685B6C5A1E7B685A64D9
:1026D00000E003E07B685B6C002BE6DC7B684FF07E
:1026E000FF325A6400F08EF90837BD4680BD00BF46
:1026F00080B584B000AF786000F062F97B689B6BB6
:10270000002B02D10123FB6001E00023FB6000F0FD
:1027100079F9FB6818461037BD4680BD80B584B096
:1027200000AF786000F04CF97B689A6B7B68DB6BDC
:102730009A4202D10123FB6001E00023FB6000F01C
:1027400061F9FB6818461037BD4680BD80B584B07E
:1027500000AF786039607B68FB6000F031F9FB689E
:102760005B6CB3F1FF3F02D1FB6800225A64FB6847
:102770009B6CB3F1FF3F02D1FB6800229A6400F02A
:1027800041F9FB689B6B002B05D1FB68243318468D
:102790003968FEF741FEF868FFF750FF1037BD4675
:1027A00080BD00BF80B584B000AF786039607B68C1
:1027B000DB6CBB600023FB60BB68002B04D11848B6
:1027C00040F6F911FEF738F8BB689A6BBB68DB6B13
:1027D0009A4204D3124840F6FA11FEF72DF8BB686E
:1027E0009A6BBB68DB6B9A4214D23B1DB8681946E2
:1027F0003A68FFF78FFEF860BB685B6A002B09D070
:10280000BB6824331846FEF733FE0346002B01D085
:102810000123FB60FB6818461037BD4680BD00BF32
:10282000A42E000880B485B000AFF860B9607A606B
:10283000FB68043BFB60FB684FF080721A60FB682A
:10284000043BFB60BA68FB681A60FB68043BFB60F2
:10285000094AFB681A60FB68143BFB607A68FB68F6
:102860001A60FB68203BFB60FB6818461437BD46C6
:102870005DF8047B704700BF7D28000880B500AF7D
:10288000054B1B68B3F1FF3F03D00448EE21FDF771
:10289000D3FF00F0D3F8FEE74C000020DC2E000848
:1028A000074B19680868B0E8F00F80F30988BFF398
:1028B0006F8F4FF0000080F311884EF00D0E7047BF
:1028C000A014002006480068006880F3088862B6FB
:1028D00061B6BFF34F8FBFF36F8F00DF00BF000003
:1028E00008ED00E080B584B000AF284BFB60FB68CA
:1028F0001B78DBB2BB60FB68FF221A70FB681B7899
:10290000DBB2FB71FB79DBB203F05003DAB2204B90
:102910001A70204B07221A6009E01E4B1B68013B0E
:102920001C4A1360FB79DBB25B00DBB2FB71FB7905
:10293000DBB2DBB25BB2002BEFDB164B1B681B027A
:10294000144A1360134B1B6803F4E063114A1360CD
:10295000BB68DAB2FB681A700F4A0F4B1B6843F46E
:10296000700313600C4A0C4B1B6843F070431360F8
:1029700000F0A8F8094B00221A60FFF7A3FFFFF749
:102980007DFF002318461037BD4680BD00E400E0FF
:102990009C150020A015002020ED00E04C00002038
:1029A00080B400AF054B4FF080521A60BFF34F8FD9
:1029B000BFF36F8FBD465DF8047B704704ED00E008
:1029C00080B500AF00F03AF80B4B1B6801330A4AA0
:1029D0001360BFF34F8FBFF36F8F074B1B68012B43
:1029E00009D1064B1B68DBB2002B04D0044840F22F
:1029F0008911FDF721FF80BD4C00002004ED00E0AF
:102A0000DC2E000880B500AF0A4B1B68002B04D1F8
:102A100009484FF4C871FDF70FFF064B1B68013BD7
:102A2000044A1360034B1B68002B02D1002000F006
:102A30000FF880BD4C000020DC2E0008EFF3118061
:102A40004FF0500181F3118870470023184600BFF2
:102A500080F31188704700BFEFF30980BFF36F8FD9
:102A60000D4B1A6820E9F00F10602DE908404FF077
:102A7000500080F31188FEF72FFC4FF0000080F328
:102A80001188BDE8084019680868B0E8F00F80F3C5
:102A90000988BFF36F8F7047A014002080B500AF86
:102AA000FFF7CCFFFEF75CFB0346002B03D0044B83
:102AB0004FF080521A600020FFF7CAFF80BD00BFB0
:102AC00004ED00E080B400AF054B4CF24F321A60C9
:102AD000044B07221A60BD465DF8047B704700BFB7
:102AE00014E000E010E000E080B582B000AFEFF34A
:102AF00005837B607B680F2B0ED90F4A7B681344DC
:102B00001B78FB700D4B1B78FA789A4204D20C4864
:102B100040F2C521FDF790FE0A4B1B6803F4E0620A
:102B2000094B1B689A4204D9054840F2D521FDF7AC
:102B300083FE0837BD4680BDF0E300E09C15002011
:102B4000DC2E00080CED00E0A015002080B483B05E
:102B500000AF786039600C37BD465DF8047B704784
:102B600080B400AF00231846BD465DF8047B704773
:102B700080B483B000AF78600B467B807B687A8836
:102B80009A810C37BD465DF8047B704780B485B0F0
:102B900000AF78600B467B800023FB737B681B894A
:102BA0009AB27B8813409BB2002B02D00123FB73A7
:102BB00001E00023FB73FB7B18461437BD465DF82C
:102BC000047B7047844641EA000313F003036DD190
:102BD000403A41D351F8043B40F8043B51F8043BE0
:102BE00040F8043B51F8043B40F8043B51F8043BE7
:102BF00040F8043B51F8043B40F8043B51F8043BD7
:102C000040F8043B51F8043B40F8043B51F8043BC6
:102C100040F8043B51F8043B40F8043B51F8043BB6
:102C200040F8043B51F8043B40F8043B51F8043BA6
:102C300040F8043B51F8043B40F8043B51F8043B96
:102C400040F8043B51F8043B40F8043B51F8043B86
:102C500040F8043B403ABDD2303211D351F8043B26
:102C600040F8043B51F8043B40F8043B51F8043B66
:102C700040F8043B51F8043B40F8043B103AEDD2D5
:102C80000C3205D351F8043B40F8043B043AF9D226
:102C9000043208D0D2071CBF11F8013B00F8013BF9
:102CA00001D30B8803806046704700BF082A13D306
:102CB0008B078DD010F003038AD0C3F10403D21A1E
:102CC000DB071CBF11F8013B00F8013B80D331F852
:102CD000023B20F8023B7BE7043AD9D3013A11F8D2
:102CE000013B00F8013BF9D20B7803704B7843703D
:102CF0008B7883706046704770B4840746D0541E4A
:102D0000002A41D0CDB2034602E0621EE4B314466D
:102D100003F8015B9A07F8D1032C2ED9CDB245EA0E
:102D200005250F2C45EA054519D903F11002264661
:102D3000103E0F2E42F8105C42F80C5C42F8085C22
:102D400042F8045C02F11002F2D8A4F1100222F061
:102D50000F0204F00F041032032C13440DD91E4649
:102D60002246043A032A46F8045BFAD8221F22F0CE
:102D700003020432134404F003042CB1C9B21C440E
:102D800003F8011BA342FBD170BC704714460346F5
:102D9000C2E700BF08000000443A5C436F49444565
:102DA0005C776F726B73706163655C4F7363696CA2
:102DB0006C6F73636F70655C6672656552544F53D8
:102DC0005C686561705F342E6300000000100020B5
:102DD000004000800800000008000000080000001B
:102DE00008000000010000000100000001000000D8
:102DF0000000000000000000060000005461736B3A
:102E000020310000443A5C436F4944455C776F725F
:102E10006B73706163655C4F7363696C6C6F736334
:102E20006F70655C6D61696E2E630000546D722079
:102E300053766300443A5C436F4944455C776F7254
:102E40006B73706163655C4F7363696C6C6F736304
:102E50006F70655C6672656552544F535C74696D42
:102E60006572732E63000000443A5C436F49444529
:102E70005C776F726B73706163655C4F7363696CD1
:102E80006C6F73636F70655C6672656552544F5307
:102E90005C7461736B732E630000000049444C4501
:102EA00000000000443A5C436F4944455C776F7210
:102EB0006B73706163655C4F7363696C6C6F736394
:102EC0006F70655C6672656552544F535C717565D1
:102ED00075652E6300000000F0E300E0443A5C43B7
:102EE0006F4944455C776F726B73706163655C4FCB
:102EF0007363696C6C6F73636F70655C6672656534
:0C2F000052544F535C706F72742E6300CB
:102F0C00FFFF0000FFFF000000C0120001000000E6
:102F1C0000002000B86002400C3C00402F00000074
:102F2C0000000028000000240000402000000022C7
:102F3C0000000021000C0240000C0240000C02407A
:102F4C00000C024000000240FFFFFFFFAAAAAAAA41
:0400000508000000EF
:00000001FF
